{
  "contractName": "/contracts/Set.sol:Set",
  "abi": [
    {
      "constant": true,
      "inputs": [
        {
          "name": "self",
          "type": "Set.Data storage"
        }
      ],
      "name": "size",
      "outputs": [
        {
          "name": "",
          "type": "uint256"
        }
      ],
      "payable": false,
      "stateMutability": "view",
      "type": "function"
    },
    {
      "constant": false,
      "inputs": [
        {
          "name": "self",
          "type": "Set.Data storage"
        },
        {
          "name": "value",
          "type": "uint256"
        }
      ],
      "name": "remove",
      "outputs": [
        {
          "name": "",
          "type": "bool"
        }
      ],
      "payable": false,
      "stateMutability": "nonpayable",
      "type": "function"
    },
    {
      "constant": true,
      "inputs": [
        {
          "name": "self",
          "type": "Set.Data storage"
        },
        {
          "name": "value",
          "type": "uint256"
        }
      ],
      "name": "contains",
      "outputs": [
        {
          "name": "",
          "type": "bool"
        }
      ],
      "payable": false,
      "stateMutability": "view",
      "type": "function"
    },
    {
      "constant": false,
      "inputs": [
        {
          "name": "self",
          "type": "Set.Data storage"
        },
        {
          "name": "value",
          "type": "uint256"
        }
      ],
      "name": "insert",
      "outputs": [
        {
          "name": "",
          "type": "bool"
        }
      ],
      "payable": false,
      "stateMutability": "nonpayable",
      "type": "function"
    }
  ],
  "bytecode": "0x6060604052341561000f57600080fd5b61029e8061001e6000396000f300606060405260043610610062576000357c0100000000000000000000000000000000000000000000000000000000900463ffffffff168063029628ff14610067578063483b8a14146100935780636ce8e081146100cc578063831cb73914610105575b600080fd5b61007d600480803590602001909190505061013e565b6040518082815260200191505060405180910390f35b6100b2600480803590602001909190803590602001909190505061014c565b604051808215151515815260200191505060405180910390f35b6100eb60048080359060200190919080359060200190919050506101c9565b604051808215151515815260200191505060405180910390f35b61012460048080359060200190919080359060200190919050506101f6565b604051808215151515815260200191505060405180910390f35b600081600101549050919050565b600082600001600083815260200190815260200160002060009054906101000a900460ff16151561018057600090506101c3565b600083600001600084815260200190815260200160002060006101000a81548160ff02191690831515021790555060018360010154038360010181905550600190505b92915050565b600082600001600083815260200190815260200160002060009054906101000a900460ff16905092915050565b600082600001600083815260200190815260200160002060009054906101000a900460ff1615610229576000905061026c565b600183600001600084815260200190815260200160002060006101000a81548160ff02191690831515021790555060018360010154018360010181905550600190505b929150505600a165627a7a723058204519146dcfdbebd82dbda4bc0212db331a8e36d6fc4f549e2719c2d3eba3a60b0029",
  "compiler": {
    "name": "solc",
    "version": "0.4.18+commit.9cf6e910.Emscripten.clang"
  },
  "schemaVersion": "3.4.2",
  "updatedAt": "2021-07-25T14:21:09.383Z",
  "devdoc": {
    "methods": {}
  },
  "userdoc": {
    "methods": {}
  }
}