{
  "contractName": "/contracts/Voting.sol:Voting",
  "abi": [
    {
      "constant": true,
      "inputs": [
        {
          "name": "",
          "type": "address"
        }
      ],
      "name": "hasVoted",
      "outputs": [
        {
          "name": "",
          "type": "bool"
        }
      ],
      "payable": false,
      "stateMutability": "view",
      "type": "function"
    },
    {
      "constant": true,
      "inputs": [],
      "name": "getState",
      "outputs": [
        {
          "name": "",
          "type": "uint256"
        }
      ],
      "payable": false,
      "stateMutability": "view",
      "type": "function"
    },
    {
      "constant": false,
      "inputs": [],
      "name": "register",
      "outputs": [],
      "payable": false,
      "stateMutability": "nonpayable",
      "type": "function"
    },
    {
      "constant": true,
      "inputs": [],
      "name": "getDomainSize",
      "outputs": [
        {
          "name": "",
          "type": "uint256"
        }
      ],
      "payable": false,
      "stateMutability": "view",
      "type": "function"
    },
    {
      "constant": true,
      "inputs": [],
      "name": "numberOfRegistered",
      "outputs": [
        {
          "name": "",
          "type": "uint256"
        }
      ],
      "payable": false,
      "stateMutability": "view",
      "type": "function"
    },
    {
      "constant": true,
      "inputs": [
        {
          "name": "",
          "type": "address"
        }
      ],
      "name": "canRegister",
      "outputs": [
        {
          "name": "",
          "type": "bool"
        }
      ],
      "payable": false,
      "stateMutability": "view",
      "type": "function"
    },
    {
      "constant": false,
      "inputs": [
        {
          "name": "vote",
          "type": "uint256"
        }
      ],
      "name": "castVote",
      "outputs": [],
      "payable": false,
      "stateMutability": "nonpayable",
      "type": "function"
    },
    {
      "constant": true,
      "inputs": [],
      "name": "question",
      "outputs": [
        {
          "name": "",
          "type": "string"
        }
      ],
      "payable": false,
      "stateMutability": "view",
      "type": "function"
    },
    {
      "constant": true,
      "inputs": [],
      "name": "getListParticipants",
      "outputs": [
        {
          "name": "",
          "type": "address[]"
        }
      ],
      "payable": false,
      "stateMutability": "view",
      "type": "function"
    },
    {
      "constant": true,
      "inputs": [],
      "name": "numberOfParticipants",
      "outputs": [
        {
          "name": "",
          "type": "uint256"
        }
      ],
      "payable": false,
      "stateMutability": "view",
      "type": "function"
    },
    {
      "constant": false,
      "inputs": [],
      "name": "tallyResult",
      "outputs": [],
      "payable": false,
      "stateMutability": "nonpayable",
      "type": "function"
    },
    {
      "constant": true,
      "inputs": [],
      "name": "owner",
      "outputs": [
        {
          "name": "",
          "type": "address"
        }
      ],
      "payable": false,
      "stateMutability": "view",
      "type": "function"
    },
    {
      "constant": true,
      "inputs": [
        {
          "name": "",
          "type": "address"
        }
      ],
      "name": "hasRegistered",
      "outputs": [
        {
          "name": "",
          "type": "bool"
        }
      ],
      "payable": false,
      "stateMutability": "view",
      "type": "function"
    },
    {
      "constant": false,
      "inputs": [],
      "name": "setStateToVote",
      "outputs": [],
      "payable": false,
      "stateMutability": "nonpayable",
      "type": "function"
    },
    {
      "constant": false,
      "inputs": [],
      "name": "setStateToFinished",
      "outputs": [],
      "payable": false,
      "stateMutability": "nonpayable",
      "type": "function"
    },
    {
      "constant": true,
      "inputs": [],
      "name": "state",
      "outputs": [
        {
          "name": "",
          "type": "uint8"
        }
      ],
      "payable": false,
      "stateMutability": "view",
      "type": "function"
    },
    {
      "constant": false,
      "inputs": [
        {
          "name": "setQuestion",
          "type": "string"
        },
        {
          "name": "setDomain",
          "type": "uint256[]"
        }
      ],
      "name": "setStateToSignUp",
      "outputs": [],
      "payable": false,
      "stateMutability": "nonpayable",
      "type": "function"
    },
    {
      "constant": true,
      "inputs": [
        {
          "name": "",
          "type": "uint256"
        }
      ],
      "name": "listParticipants",
      "outputs": [
        {
          "name": "",
          "type": "address"
        }
      ],
      "payable": false,
      "stateMutability": "view",
      "type": "function"
    },
    {
      "constant": true,
      "inputs": [],
      "name": "getResult",
      "outputs": [
        {
          "name": "",
          "type": "uint256[2]"
        }
      ],
      "payable": false,
      "stateMutability": "view",
      "type": "function"
    },
    {
      "constant": false,
      "inputs": [
        {
          "name": "addresses",
          "type": "address[]"
        }
      ],
      "name": "setParticipants",
      "outputs": [],
      "payable": false,
      "stateMutability": "nonpayable",
      "type": "function"
    },
    {
      "constant": false,
      "inputs": [
        {
          "name": "newOwner",
          "type": "address"
        }
      ],
      "name": "transferOwnership",
      "outputs": [],
      "payable": false,
      "stateMutability": "nonpayable",
      "type": "function"
    },
    {
      "inputs": [],
      "payable": false,
      "stateMutability": "nonpayable",
      "type": "constructor"
    }
  ],
  "bytecode": "0x606060405234156200001057600080fd5b336000806101000a81548173ffffffffffffffffffffffffffffffffffffffff021916908373ffffffffffffffffffffffffffffffffffffffff16021790555060008060146101000a81548160ff021916908360038111156200006f57fe5b02179055506040805190810160405280600060ff168152602001600060ff168152506001906002620000a39291906200012f565b5060006003819055506000600481905550606060405190810160405280602581526020017f5175657374696f6e206e6f7420736574746564207965742e205345545550205381526020017f544147452e000000000000000000000000000000000000000000000000000000815250600590805190602001906200012892919062000179565b5062000228565b826002810192821562000166579160200282015b8281111562000165578251829060ff1690559160200191906001019062000143565b5b50905062000175919062000200565b5090565b828054600181600116156101000203166002900490600052602060002090601f016020900481019282601f10620001bc57805160ff1916838001178555620001ed565b82800160010185558215620001ed579182015b82811115620001ec578251825591602001919060010190620001cf565b5b509050620001fc919062000200565b5090565b6200022591905b808211156200022157600081600090555060010162000207565b5090565b90565b61159480620002386000396000f30060606040526004361061011d576000357c0100000000000000000000000000000000000000000000000000000000900463ffffffff16806309eef43e146101225780631865c57d146101735780631aa3a0081461019c5780631b360b95146101b15780632b173ffa146101da578063320d46d4146102035780633eb76b9c146102545780633fad9ae0146102775780635155f431146103055780637417040e1461036f57806375c5e1f9146103985780638da5cb5b146103ad578063a0d0352614610402578063a9ec9adb14610453578063b0384ea114610468578063c19d93fb1461047d578063cd7b30a2146104b4578063d11aac5c14610551578063de292789146105b4578063e004af5c14610605578063f2fde38b1461065f575b600080fd5b341561012d57600080fd5b610159600480803573ffffffffffffffffffffffffffffffffffffffff16906020019091905050610698565b604051808215151515815260200191505060405180910390f35b341561017e57600080fd5b6101866106b8565b6040518082815260200191505060405180910390f35b34156101a757600080fd5b6101af610798565b005b34156101bc57600080fd5b6101c46108e2565b6040518082815260200191505060405180910390f35b34156101e557600080fd5b6101ed61097a565b6040518082815260200191505060405180910390f35b341561020e57600080fd5b61023a600480803573ffffffffffffffffffffffffffffffffffffffff16906020019091905050610980565b604051808215151515815260200191505060405180910390f35b341561025f57600080fd5b61027560048080359060200190919050506109a0565b005b341561028257600080fd5b61028a610b08565b6040518080602001828103825283818151815260200191508051906020019080838360005b838110156102ca5780820151818401526020810190506102af565b50505050905090810190601f1680156102f75780820380516001836020036101000a031916815260200191505b509250505060405180910390f35b341561031057600080fd5b610318610ba6565b6040518080602001828103825283818151815260200191508051906020019060200280838360005b8381101561035b578082015181840152602081019050610340565b505050509050019250505060405180910390f35b341561037a57600080fd5b610382610c3a565b6040518082815260200191505060405180910390f35b34156103a357600080fd5b6103ab610c40565b005b34156103b857600080fd5b6103c0610d8e565b604051808273ffffffffffffffffffffffffffffffffffffffff1673ffffffffffffffffffffffffffffffffffffffff16815260200191505060405180910390f35b341561040d57600080fd5b610439600480803573ffffffffffffffffffffffffffffffffffffffff16906020019091905050610db3565b604051808215151515815260200191505060405180910390f35b341561045e57600080fd5b610466610dd3565b005b341561047357600080fd5b61047b610e9c565b005b341561048857600080fd5b610490610f53565b604051808260038111156104a057fe5b60ff16815260200191505060405180910390f35b34156104bf57600080fd5b61054f600480803590602001908201803590602001908080601f0160208091040260200160405190810160405280939291908181526020018383808284378201915050505050509190803590602001908201803590602001908080602002602001604051908101604052809392919081815260200183836020028082843782019150505050505091905050610f66565b005b341561055c57600080fd5b610572600480803590602001909190505061111f565b604051808273ffffffffffffffffffffffffffffffffffffffff1673ffffffffffffffffffffffffffffffffffffffff16815260200191505060405180910390f35b34156105bf57600080fd5b6105c761115e565b6040518082600260200280838360005b838110156105f25780820151818401526020810190506105d7565b5050505090500191505060405180910390f35b341561061057600080fd5b61065d6004808035906020019082018035906020019080806020026020016040519081016040528093929190818152602001838360200280828437820191505050505050919050506111df565b005b341561066a57600080fd5b610696600480803573ffffffffffffffffffffffffffffffffffffffff16906020019091905050611392565b005b600b6020528060005260406000206000915054906101000a900460ff1681565b60008060038111156106c657fe5b600060149054906101000a900460ff1660038111156106e157fe5b14156106f05760009050610795565b600160038111156106fd57fe5b600060149054906101000a900460ff16600381111561071857fe5b14156107275760019050610795565b6002600381111561073457fe5b600060149054906101000a900460ff16600381111561074f57fe5b141561075e5760029050610795565b60038081111561076a57fe5b600060149054906101000a900460ff16600381111561078557fe5b14156107945760039050610795565b5b90565b60018060038111156107a657fe5b600060149054906101000a900460ff1660038111156107c157fe5b1415156107cd57600080fd5b600a60003373ffffffffffffffffffffffffffffffffffffffff1673ffffffffffffffffffffffffffffffffffffffff16815260200190815260200160002060009054906101000a900460ff1680156108705750600c60003373ffffffffffffffffffffffffffffffffffffffff1673ffffffffffffffffffffffffffffffffffffffff16815260200190815260200160002060009054906101000a900460ff16155b151561087b57600080fd5b6001600c60003373ffffffffffffffffffffffffffffffffffffffff1673ffffffffffffffffffffffffffffffffffffffff16815260200190815260200160002060006101000a81548160ff02191690831515021790555060016004540160048190555050565b6000600673__/contracts/Set.sol:Set________________63029628ff90916000604051602001526040518263ffffffff167c01000000000000000000000000000000000000000000000000000000000281526004018082815260200191505060206040518083038186803b151561095a57600080fd5b6102c65a03f4151561096b57600080fd5b50505060405180519050905090565b60045481565b600a6020528060005260406000206000915054906101000a900460ff1681565b60028060038111156109ae57fe5b600060149054906101000a900460ff1660038111156109c957fe5b1415156109d557600080fd5b600c60003373ffffffffffffffffffffffffffffffffffffffff1673ffffffffffffffffffffffffffffffffffffffff16815260200190815260200160002060009054906101000a900460ff168015610a785750600b60003373ffffffffffffffffffffffffffffffffffffffff1673ffffffffffffffffffffffffffffffffffffffff16815260200190815260200160002060009054906101000a900460ff16155b1515610a8357600080fd5b60088054806001018281610a979190611430565b9160005260206000209001600084909190915055506001600b60003373ffffffffffffffffffffffffffffffffffffffff1673ffffffffffffffffffffffffffffffffffffffff16815260200190815260200160002060006101000a81548160ff0219169083151502179055505050565b60058054600181600116156101000203166002900480601f016020809104026020016040519081016040528092919081815260200182805460018160011615610100020316600290048015610b9e5780601f10610b7357610100808354040283529160200191610b9e565b820191906000526020600020905b815481529060010190602001808311610b8157829003601f168201915b505050505081565b610bae61145c565b6009805480602002602001604051908101604052809291908181526020018280548015610c3057602002820191906000526020600020905b8160009054906101000a900473ffffffffffffffffffffffffffffffffffffffff1673ffffffffffffffffffffffffffffffffffffffff1681526020019060010190808311610be6575b5050505050905090565b60035481565b60006003806003811115610c5057fe5b600060149054906101000a900460ff166003811115610c6b57fe5b141515610c7757600080fd5b3373ffffffffffffffffffffffffffffffffffffffff166000809054906101000a900473ffffffffffffffffffffffffffffffffffffffff1673ffffffffffffffffffffffffffffffffffffffff16141515610cd257600080fd5b600091505b600880549050821015610d8a576000600883815481101515610cf557fe5b9060005260206000209001541415610d31576001806000600281101515610d1857fe5b01540160016000600281101515610d2b57fe5b01819055505b6001600883815481101515610d4257fe5b9060005260206000209001541415610d7d576001806001600281101515610d6557fe5b015401600180600281101515610d7757fe5b01819055505b8180600101925050610cd7565b5050565b6000809054906101000a900473ffffffffffffffffffffffffffffffffffffffff1681565b600c6020528060005260406000206000915054906101000a900460ff1681565b6001806003811115610de157fe5b600060149054906101000a900460ff166003811115610dfc57fe5b141515610e0857600080fd5b3373ffffffffffffffffffffffffffffffffffffffff166000809054906101000a900473ffffffffffffffffffffffffffffffffffffffff1673ffffffffffffffffffffffffffffffffffffffff16141515610e6357600080fd5b600454600354141515610e7557600080fd5b6002600060146101000a81548160ff02191690836003811115610e9457fe5b021790555050565b6002806003811115610eaa57fe5b600060149054906101000a900460ff166003811115610ec557fe5b141515610ed157600080fd5b3373ffffffffffffffffffffffffffffffffffffffff166000809054906101000a900473ffffffffffffffffffffffffffffffffffffffff1673ffffffffffffffffffffffffffffffffffffffff16141515610f2c57600080fd5b6003600060146101000a81548160ff02191690836003811115610f4b57fe5b021790555050565b600060149054906101000a900460ff1681565b600080806003811115610f7557fe5b600060149054906101000a900460ff166003811115610f9057fe5b141515610f9c57600080fd5b3373ffffffffffffffffffffffffffffffffffffffff166000809054906101000a900473ffffffffffffffffffffffffffffffffffffffff1673ffffffffffffffffffffffffffffffffffffffff16141515610ff757600080fd5b600060035411151561100857600080fd5b6001600060146101000a81548160ff0219169083600381111561102757fe5b02179055508360059080519060200190611042929190611470565b50600091505b825182101561111957600673__/contracts/Set.sol:Set________________63831cb7399091858581518110151561107d57fe5b906020019060200201516000604051602001526040518363ffffffff167c0100000000000000000000000000000000000000000000000000000000028152600401808381526020018281526020019250505060206040518083038186803b15156110e657600080fd5b6102c65a03f415156110f757600080fd5b50505060405180519050151561110c57600080fd5b8180600101925050611048565b50505050565b60098181548110151561112e57fe5b90600052602060002090016000915054906101000a900473ffffffffffffffffffffffffffffffffffffffff1681565b6111666114f0565b600380600381111561117457fe5b600060149054906101000a900460ff16600381111561118f57fe5b14151561119b57600080fd5b60016002806020026040519081016040528092919082600280156111d4576020028201915b8154815260200190600101908083116111c0575b505050505091505090565b6000808060038111156111ee57fe5b600060149054906101000a900460ff16600381111561120957fe5b14151561121557600080fd5b3373ffffffffffffffffffffffffffffffffffffffff166000809054906101000a900473ffffffffffffffffffffffffffffffffffffffff1673ffffffffffffffffffffffffffffffffffffffff1614151561127057600080fd5b6000835111151561128057600080fd5b8251600381905550600091505b60035482101561138d576001600a600085858151811015156112ab57fe5b9060200190602002015173ffffffffffffffffffffffffffffffffffffffff1673ffffffffffffffffffffffffffffffffffffffff16815260200190815260200160002060006101000a81548160ff0219169083151502179055506009805480600101828161131a9190611517565b91600052602060002090016000858581518110151561133557fe5b90602001906020020151909190916101000a81548173ffffffffffffffffffffffffffffffffffffffff021916908373ffffffffffffffffffffffffffffffffffffffff16021790555050818060010192505061128d565b505050565b3373ffffffffffffffffffffffffffffffffffffffff166000809054906101000a900473ffffffffffffffffffffffffffffffffffffffff1673ffffffffffffffffffffffffffffffffffffffff161415156113ed57600080fd5b806000806101000a81548173ffffffffffffffffffffffffffffffffffffffff021916908373ffffffffffffffffffffffffffffffffffffffff16021790555050565b815481835581811511611457578183600052602060002091820191016114569190611543565b5b505050565b602060405190810160405280600081525090565b828054600181600116156101000203166002900490600052602060002090601f016020900481019282601f106114b157805160ff19168380011785556114df565b828001600101855582156114df579182015b828111156114de5782518255916020019190600101906114c3565b5b5090506114ec9190611543565b5090565b60408051908101604052806002905b60008152602001906001900390816114ff5790505090565b81548183558181151161153e5781836000526020600020918201910161153d9190611543565b5b505050565b61156591905b80821115611561576000816000905550600101611549565b5090565b905600a165627a7a72305820eb331c9b48131b4be2f451a5346129ea6ee29ae0ea4b5bdbf749c2e451944c3a0029",
  "compiler": {
    "name": "solc",
    "version": "0.4.18+commit.9cf6e910.Emscripten.clang"
  },
  "schemaVersion": "3.4.2",
  "updatedAt": "2021-07-25T14:21:09.383Z",
  "devdoc": {
    "methods": {}
  },
  "userdoc": {
    "methods": {}
  }
}